{
  "contractName": "Pharma",
  "abi": [
    {
      "inputs": [],
      "payable": false,
      "stateMutability": "nonpayable",
      "type": "constructor",
      "signature": "constructor"
    },
    {
      "anonymous": false,
      "inputs": [
        {
          "indexed": false,
          "name": "serialNo",
          "type": "uint256"
        },
        {
          "indexed": false,
          "name": "receiver",
          "type": "address"
        },
        {
          "indexed": false,
          "name": "shipper",
          "type": "address"
        }
      ],
      "name": "Txn",
      "type": "event",
      "signature": "0x3e8a9a3385eed7315386170257696fe040db8b5e8f8635d19829b7c95ded1e43"
    },
    {
      "constant": false,
      "inputs": [
        {
          "name": "productID",
          "type": "uint256"
        },
        {
          "name": "serialNo",
          "type": "uint256"
        }
      ],
      "name": "create",
      "outputs": [],
      "payable": false,
      "stateMutability": "nonpayable",
      "type": "function",
      "signature": "0x9f7b4579"
    },
    {
      "constant": false,
      "inputs": [
        {
          "name": "receiver",
          "type": "address"
        },
        {
          "name": "serialNo",
          "type": "uint256"
        }
      ],
      "name": "transact",
      "outputs": [],
      "payable": false,
      "stateMutability": "nonpayable",
      "type": "function",
      "signature": "0xf77ac668"
    }
  ],
  "bytecode": "0x608060405234801561001057600080fd5b50610579806100206000396000f3fe60806040526004361061004c576000357c0100000000000000000000000000000000000000000000000000000000900463ffffffff1680639f7b457914610051578063f77ac66814610096575b600080fd5b34801561005d57600080fd5b506100946004803603604081101561007457600080fd5b8101908080359060200190929190803590602001909291905050506100f1565b005b3480156100a257600080fd5b506100ef600480360360408110156100b957600080fd5b81019080803573ffffffffffffffffffffffffffffffffffffffff169060200190929190803590602001909291905050506102c0565b005b81600080838152602001908152602001600020600001819055503360008083815260200190815260200160002060010160006101000a81548173ffffffffffffffffffffffffffffffffffffffff021916908373ffffffffffffffffffffffffffffffffffffffff1602179055503360008083815260200190815260200160002060020160006101000a81548173ffffffffffffffffffffffffffffffffffffffff021916908373ffffffffffffffffffffffffffffffffffffffff1602179055507f3e8a9a3385eed7315386170257696fe040db8b5e8f8635d19829b7c95ded1e438160008084815260200190815260200160002060010160009054906101000a900473ffffffffffffffffffffffffffffffffffffffff1660008085815260200190815260200160002060020160009054906101000a900473ffffffffffffffffffffffffffffffffffffffff16604051808481526020018373ffffffffffffffffffffffffffffffffffffffff1673ffffffffffffffffffffffffffffffffffffffff1681526020018273ffffffffffffffffffffffffffffffffffffffff1673ffffffffffffffffffffffffffffffffffffffff168152602001935050505060405180910390a15050565b3373ffffffffffffffffffffffffffffffffffffffff1660008083815260200190815260200160002060010160009054906101000a900473ffffffffffffffffffffffffffffffffffffffff1673ffffffffffffffffffffffffffffffffffffffff16141515610398576040517f08c379a00000000000000000000000000000000000000000000000000000000081526004018080602001828103825260128152602001807f596f7520646f6e2774206f776e2074686973000000000000000000000000000081525060200191505060405180910390fd5b3360008083815260200190815260200160002060020160006101000a81548173ffffffffffffffffffffffffffffffffffffffff021916908373ffffffffffffffffffffffffffffffffffffffff1602179055508160008083815260200190815260200160002060010160006101000a81548173ffffffffffffffffffffffffffffffffffffffff021916908373ffffffffffffffffffffffffffffffffffffffff1602179055507f3e8a9a3385eed7315386170257696fe040db8b5e8f8635d19829b7c95ded1e438160008084815260200190815260200160002060010160009054906101000a900473ffffffffffffffffffffffffffffffffffffffff1660008085815260200190815260200160002060020160009054906101000a900473ffffffffffffffffffffffffffffffffffffffff16604051808481526020018373ffffffffffffffffffffffffffffffffffffffff1673ffffffffffffffffffffffffffffffffffffffff1681526020018273ffffffffffffffffffffffffffffffffffffffff1673ffffffffffffffffffffffffffffffffffffffff168152602001935050505060405180910390a1505056fea165627a7a7230582073207a91235f045006637238afefd189e6886f4883ab022981f89fe5ab5051a40029",
  "source": "pragma solidity >=0.4.22 <0.6.0;\ncontract Pharma{\n\n    constructor() public{\n    }\n\n    struct product {\n        uint productID;\n        address currOwn;\n        address prevOwn;\n    }\n    mapping(uint => product) products;\n    event Txn(uint serialNo, address receiver, address shipper);\n\n    function create(uint productID, uint serialNo) public {\n        products[serialNo].productID = productID;\n        products[serialNo].currOwn = msg.sender;\n        products[serialNo].prevOwn = msg.sender;\n        emit Txn(serialNo, products[serialNo].currOwn, products[serialNo].prevOwn);\n    }\n\n    function transact(address receiver, uint serialNo) public {\n        require(products[serialNo].currOwn == msg.sender, \"You don't own this\");\n        products[serialNo].prevOwn = msg.sender;\n        products[serialNo].currOwn = receiver;\n        emit Txn(serialNo, products[serialNo].currOwn, products[serialNo].prevOwn);\n    }\n\n\n\n}\n",
  "sourcePath": "/home/ubuntu/Pharma/contracts/Pharma.sol",
  "compiler": {
    "name": "solc",
    "version": "0.5.0+commit.1d4f565a.Emscripten.clang"
  },
  "schemaVersion": "3.0.1",
  "updatedAt": "2019-04-13T16:25:44.653Z",
  "devdoc": {
    "methods": {}
  },
  "userdoc": {
    "methods": {}
  }
}